{
	"data": {
		"bytecode": {
			"linkReferences": {},
			"object": "608060405234801561000f575f80fd5b506040518060400160405280600a81526020017f54616e676671436f696e000000000000000000000000000000000000000000008152505f90816100539190610414565b506040518060400160405280600581526020017f5446514743000000000000000000000000000000000000000000000000000000815250600190816100989190610414565b50601260025f6101000a81548160ff021916908360ff1602179055506100fa6100c56100ff60201b60201c565b60025f9054906101000a900460ff16600a6100e0919061064b565b6305f5e1006100ef9190610695565b61010660201b60201c565b610781565b5f33905090565b5f73ffffffffffffffffffffffffffffffffffffffff168273ffffffffffffffffffffffffffffffffffffffff1603610174576040517f08c379a000000000000000000000000000000000000000000000000000000000815260040161016b90610730565b60405180910390fd5b8060035f828254610185919061074e565b925050819055508060045f8473ffffffffffffffffffffffffffffffffffffffff1673ffffffffffffffffffffffffffffffffffffffff1681526020019081526020015f205f82825401925050819055505050565b5f81519050919050565b7f4e487b71000000000000000000000000000000000000000000000000000000005f52604160045260245ffd5b7f4e487b71000000000000000000000000000000000000000000000000000000005f52602260045260245ffd5b5f600282049050600182168061025557607f821691505b60208210810361026857610267610211565b5b50919050565b5f819050815f5260205f209050919050565b5f6020601f8301049050919050565b5f82821b905092915050565b5f600883026102ca7fffffffffffffffffffffffffffffffffffffffffffffffffffffffffffffffff8261028f565b6102d4868361028f565b95508019841693508086168417925050509392505050565b5f819050919050565b5f819050919050565b5f61031861031361030e846102ec565b6102f5565b6102ec565b9050919050565b5f819050919050565b610331836102fe565b61034561033d8261031f565b84845461029b565b825550505050565b5f90565b61035961034d565b610364818484610328565b505050565b5b818110156103875761037c5f82610351565b60018101905061036a565b5050565b601f8211156103cc5761039d8161026e565b6103a684610280565b810160208510156103b5578190505b6103c96103c185610280565b830182610369565b50505b505050565b5f82821c905092915050565b5f6103ec5f19846008026103d1565b1980831691505092915050565b5f61040483836103dd565b9150826002028217905092915050565b61041d826101da565b67ffffffffffffffff811115610436576104356101e4565b5b610440825461023e565b61044b82828561038b565b5f60209050601f83116001811461047c575f841561046a578287015190505b61047485826103f9565b8655506104db565b601f19841661048a8661026e565b5f5b828110156104b15784890151825560018201915060208501945060208101905061048c565b868310156104ce57848901516104ca601f8916826103dd565b8355505b6001600288020188555050505b505050505050565b7f4e487b71000000000000000000000000000000000000000000000000000000005f52601160045260245ffd5b5f8160011c9050919050565b5f808291508390505b600185111561056557808604811115610541576105406104e3565b5b60018516156105505780820291505b808102905061055e85610510565b9450610525565b94509492505050565b5f8261057d5760019050610638565b8161058a575f9050610638565b81600181146105a057600281146105aa576105d9565b6001915050610638565b60ff8411156105bc576105bb6104e3565b5b8360020a9150848211156105d3576105d26104e3565b5b50610638565b5060208310610133831016604e8410600b841016171561060e5782820a905083811115610609576106086104e3565b5b610638565b61061b848484600161051c565b92509050818404811115610632576106316104e3565b5b81810290505b9392505050565b5f60ff82169050919050565b5f610655826102ec565b91506106608361063f565b925061068d7fffffffffffffffffffffffffffffffffffffffffffffffffffffffffffffffff848461056e565b905092915050565b5f61069f826102ec565b91506106aa836102ec565b92508282026106b8816102ec565b915082820484148315176106cf576106ce6104e3565b5b5092915050565b5f82825260208201905092915050565b7f45524332303a6d696e7420746f20746865207a65726f206164647265737300005f82015250565b5f61071a601e836106d6565b9150610725826106e6565b602082019050919050565b5f6020820190508181035f8301526107478161070e565b9050919050565b5f610758826102ec565b9150610763836102ec565b925082820190508082111561077b5761077a6104e3565b5b92915050565b610f128061078e5f395ff3fe608060405234801561000f575f80fd5b5060043610610091575f3560e01c806323b872dd1161006457806323b872dd14610131578063313ce5671461016157806370a082311461017f57806395d89b41146101af578063a9059cbb146101cd57610091565b806306fdde0314610095578063095ea7b3146100b357806318160ddd146100e35780631a46ec8214610101575b5f80fd5b61009d6101fd565b6040516100aa919061093e565b60405180910390f35b6100cd60048036038101906100c891906109ef565b61028c565b6040516100da9190610a47565b60405180910390f35b6100eb6102ae565b6040516100f89190610a6f565b60405180910390f35b61011b60048036038101906101169190610a88565b6102b7565b6040516101289190610a6f565b60405180910390f35b61014b60048036038101906101469190610ac6565b610339565b6040516101589190610a47565b60405180910390f35b610169610367565b6040516101769190610b31565b60405180910390f35b61019960048036038101906101949190610b4a565b61037c565b6040516101a69190610a6f565b60405180910390f35b6101b76103c2565b6040516101c4919061093e565b60405180910390f35b6101e760048036038101906101e291906109ef565b610452565b6040516101f49190610a47565b60405180910390f35b60605f805461020b90610ba2565b80601f016020809104026020016040519081016040528092919081815260200182805461023790610ba2565b80156102825780601f1061025957610100808354040283529160200191610282565b820191905f5260205f20905b81548152906001019060200180831161026557829003601f168201915b5050505050905090565b5f80610296610474565b90506102a381858561047b565b600191505092915050565b5f600354905090565b5f60055f8473ffffffffffffffffffffffffffffffffffffffff1673ffffffffffffffffffffffffffffffffffffffff1681526020019081526020015f205f8373ffffffffffffffffffffffffffffffffffffffff1673ffffffffffffffffffffffffffffffffffffffff1681526020019081526020015f2054905092915050565b5f80610343610474565b9050610350858285610614565b61035b85858561069f565b60019150509392505050565b5f60025f9054906101000a900460ff16905090565b5f60045f8373ffffffffffffffffffffffffffffffffffffffff1673ffffffffffffffffffffffffffffffffffffffff1681526020019081526020015f20549050919050565b6060600180546103d190610ba2565b80601f01602080910402602001604051908101604052809291908181526020018280546103fd90610ba2565b80156104485780601f1061041f57610100808354040283529160200191610448565b820191905f5260205f20905b81548152906001019060200180831161042b57829003601f168201915b5050505050905090565b5f8061045c610474565b905061046981858561069f565b600191505092915050565b5f33905090565b5f73ffffffffffffffffffffffffffffffffffffffff168373ffffffffffffffffffffffffffffffffffffffff16036104e9576040517f08c379a00000000000000000000000000000000000000000000000000000000081526004016104e090610c42565b60405180910390fd5b5f73ffffffffffffffffffffffffffffffffffffffff168273ffffffffffffffffffffffffffffffffffffffff1603610557576040517f08c379a000000000000000000000000000000000000000000000000000000000815260040161054e90610c42565b60405180910390fd5b8060055f8573ffffffffffffffffffffffffffffffffffffffff1673ffffffffffffffffffffffffffffffffffffffff1681526020019081526020015f205f8473ffffffffffffffffffffffffffffffffffffffff1673ffffffffffffffffffffffffffffffffffffffff1681526020019081526020015f20819055507f8c5be1e5ebec7d5bd14f71427d1e84f3dd0314c0f7b2291e5b200ac8c7c3b92583838360405161060793929190610c6f565b60405180910390a1505050565b5f61061f84846102b7565b90507fffffffffffffffffffffffffffffffffffffffffffffffffffffffffffffffff8114610699578181101561068b576040517f08c379a000000000000000000000000000000000000000000000000000000000815260040161068290610d14565b60405180910390fd5b610698848484840361047b565b5b50505050565b5f73ffffffffffffffffffffffffffffffffffffffff168373ffffffffffffffffffffffffffffffffffffffff160361070d576040517f08c379a000000000000000000000000000000000000000000000000000000000815260040161070490610da2565b60405180910390fd5b5f73ffffffffffffffffffffffffffffffffffffffff168273ffffffffffffffffffffffffffffffffffffffff160361077b576040517f08c379a000000000000000000000000000000000000000000000000000000000815260040161077290610e30565b60405180910390fd5b5f60045f8573ffffffffffffffffffffffffffffffffffffffff1673ffffffffffffffffffffffffffffffffffffffff1681526020019081526020015f20549050818110156107ff576040517f08c379a00000000000000000000000000000000000000000000000000000000081526004016107f690610ebe565b60405180910390fd5b81810360045f8673ffffffffffffffffffffffffffffffffffffffff1673ffffffffffffffffffffffffffffffffffffffff1681526020019081526020015f20819055508160045f8573ffffffffffffffffffffffffffffffffffffffff1673ffffffffffffffffffffffffffffffffffffffff1681526020019081526020015f205f82825401925050819055507fddf252ad1be2c89b69c2b068fc378daa952ba7f163c4a11628f55a4df523b3ef8484846040516108c093929190610c6f565b60405180910390a150505050565b5f81519050919050565b5f82825260208201905092915050565b8281835e5f83830152505050565b5f601f19601f8301169050919050565b5f610910826108ce565b61091a81856108d8565b935061092a8185602086016108e8565b610933816108f6565b840191505092915050565b5f6020820190508181035f8301526109568184610906565b905092915050565b5f80fd5b5f73ffffffffffffffffffffffffffffffffffffffff82169050919050565b5f61098b82610962565b9050919050565b61099b81610981565b81146109a5575f80fd5b50565b5f813590506109b681610992565b92915050565b5f819050919050565b6109ce816109bc565b81146109d8575f80fd5b50565b5f813590506109e9816109c5565b92915050565b5f8060408385031215610a0557610a0461095e565b5b5f610a12858286016109a8565b9250506020610a23858286016109db565b9150509250929050565b5f8115159050919050565b610a4181610a2d565b82525050565b5f602082019050610a5a5f830184610a38565b92915050565b610a69816109bc565b82525050565b5f602082019050610a825f830184610a60565b92915050565b5f8060408385031215610a9e57610a9d61095e565b5b5f610aab858286016109a8565b9250506020610abc858286016109a8565b9150509250929050565b5f805f60608486031215610add57610adc61095e565b5b5f610aea868287016109a8565b9350506020610afb868287016109a8565b9250506040610b0c868287016109db565b9150509250925092565b5f60ff82169050919050565b610b2b81610b16565b82525050565b5f602082019050610b445f830184610b22565b92915050565b5f60208284031215610b5f57610b5e61095e565b5b5f610b6c848285016109a8565b91505092915050565b7f4e487b71000000000000000000000000000000000000000000000000000000005f52602260045260245ffd5b5f6002820490506001821680610bb957607f821691505b602082108103610bcc57610bcb610b75565b5b50919050565b7f45524332303a5f617070726f766520746f20746865207a65726f2061646472655f8201527f7373000000000000000000000000000000000000000000000000000000000000602082015250565b5f610c2c6022836108d8565b9150610c3782610bd2565b604082019050919050565b5f6020820190508181035f830152610c5981610c20565b9050919050565b610c6981610981565b82525050565b5f606082019050610c825f830186610c60565b610c8f6020830185610c60565b610c9c6040830184610a60565b949350505050565b7f4552433230efbc9a6f776e65722062616c616e6365206973206c6573732074685f8201527f616e20616d6f756e742100000000000000000000000000000000000000000000602082015250565b5f610cfe602a836108d8565b9150610d0982610ca4565b604082019050919050565b5f6020820190508181035f830152610d2b81610cf2565b9050919050565b7f45524332303a5f7472616e7366657220746f20746865207a65726f205b66726f5f8201527f6d5d206164647265737300000000000000000000000000000000000000000000602082015250565b5f610d8c602a836108d8565b9150610d9782610d32565b604082019050919050565b5f6020820190508181035f830152610db981610d80565b9050919050565b7f45524332303a5f7472616e7366657220746f20746865207a65726f205b746f5d5f8201527f2061646472657373000000000000000000000000000000000000000000000000602082015250565b5f610e1a6028836108d8565b9150610e2582610dc0565b604082019050919050565b5f6020820190508181035f830152610e4781610e0e565b9050919050565b7f45524332303a616d6f756e74206973206c657373207468616e2066726f6d42615f8201527f6c616e6365000000000000000000000000000000000000000000000000000000602082015250565b5f610ea86025836108d8565b9150610eb382610e4e565b604082019050919050565b5f6020820190508181035f830152610ed581610e9c565b905091905056fea2646970667358221220c9b27ba2318ca802427a1dc63e4d56c225b1609de4d3924ea4317f2f2fd2ee9264736f6c634300081a0033",
			"opcodes": "PUSH1 0x80 PUSH1 0x40 MSTORE CALLVALUE DUP1 ISZERO PUSH2 0xF JUMPI PUSH0 DUP1 REVERT JUMPDEST POP PUSH1 0x40 MLOAD DUP1 PUSH1 0x40 ADD PUSH1 0x40 MSTORE DUP1 PUSH1 0xA DUP2 MSTORE PUSH1 0x20 ADD PUSH32 0x54616E676671436F696E00000000000000000000000000000000000000000000 DUP2 MSTORE POP PUSH0 SWAP1 DUP2 PUSH2 0x53 SWAP2 SWAP1 PUSH2 0x414 JUMP JUMPDEST POP PUSH1 0x40 MLOAD DUP1 PUSH1 0x40 ADD PUSH1 0x40 MSTORE DUP1 PUSH1 0x5 DUP2 MSTORE PUSH1 0x20 ADD PUSH32 0x5446514743000000000000000000000000000000000000000000000000000000 DUP2 MSTORE POP PUSH1 0x1 SWAP1 DUP2 PUSH2 0x98 SWAP2 SWAP1 PUSH2 0x414 JUMP JUMPDEST POP PUSH1 0x12 PUSH1 0x2 PUSH0 PUSH2 0x100 EXP DUP2 SLOAD DUP2 PUSH1 0xFF MUL NOT AND SWAP1 DUP4 PUSH1 0xFF AND MUL OR SWAP1 SSTORE POP PUSH2 0xFA PUSH2 0xC5 PUSH2 0xFF PUSH1 0x20 SHL PUSH1 0x20 SHR JUMP JUMPDEST PUSH1 0x2 PUSH0 SWAP1 SLOAD SWAP1 PUSH2 0x100 EXP SWAP1 DIV PUSH1 0xFF AND PUSH1 0xA PUSH2 0xE0 SWAP2 SWAP1 PUSH2 0x64B JUMP JUMPDEST PUSH4 0x5F5E100 PUSH2 0xEF SWAP2 SWAP1 PUSH2 0x695 JUMP JUMPDEST PUSH2 0x106 PUSH1 0x20 SHL PUSH1 0x20 SHR JUMP JUMPDEST PUSH2 0x781 JUMP JUMPDEST PUSH0 CALLER SWAP1 POP SWAP1 JUMP JUMPDEST PUSH0 PUSH20 0xFFFFFFFFFFFFFFFFFFFFFFFFFFFFFFFFFFFFFFFF AND DUP3 PUSH20 0xFFFFFFFFFFFFFFFFFFFFFFFFFFFFFFFFFFFFFFFF AND SUB PUSH2 0x174 JUMPI PUSH1 0x40 MLOAD PUSH32 0x8C379A000000000000000000000000000000000000000000000000000000000 DUP2 MSTORE PUSH1 0x4 ADD PUSH2 0x16B SWAP1 PUSH2 0x730 JUMP JUMPDEST PUSH1 0x40 MLOAD DUP1 SWAP2 SUB SWAP1 REVERT JUMPDEST DUP1 PUSH1 0x3 PUSH0 DUP3 DUP3 SLOAD PUSH2 0x185 SWAP2 SWAP1 PUSH2 0x74E JUMP JUMPDEST SWAP3 POP POP DUP2 SWAP1 SSTORE POP DUP1 PUSH1 0x4 PUSH0 DUP5 PUSH20 0xFFFFFFFFFFFFFFFFFFFFFFFFFFFFFFFFFFFFFFFF AND PUSH20 0xFFFFFFFFFFFFFFFFFFFFFFFFFFFFFFFFFFFFFFFF AND DUP2 MSTORE PUSH1 0x20 ADD SWAP1 DUP2 MSTORE PUSH1 0x20 ADD PUSH0 KECCAK256 PUSH0 DUP3 DUP3 SLOAD ADD SWAP3 POP POP DUP2 SWAP1 SSTORE POP POP POP JUMP JUMPDEST PUSH0 DUP2 MLOAD SWAP1 POP SWAP2 SWAP1 POP JUMP JUMPDEST PUSH32 0x4E487B7100000000000000000000000000000000000000000000000000000000 PUSH0 MSTORE PUSH1 0x41 PUSH1 0x4 MSTORE PUSH1 0x24 PUSH0 REVERT JUMPDEST PUSH32 0x4E487B7100000000000000000000000000000000000000000000000000000000 PUSH0 MSTORE PUSH1 0x22 PUSH1 0x4 MSTORE PUSH1 0x24 PUSH0 REVERT JUMPDEST PUSH0 PUSH1 0x2 DUP3 DIV SWAP1 POP PUSH1 0x1 DUP3 AND DUP1 PUSH2 0x255 JUMPI PUSH1 0x7F DUP3 AND SWAP2 POP JUMPDEST PUSH1 0x20 DUP3 LT DUP2 SUB PUSH2 0x268 JUMPI PUSH2 0x267 PUSH2 0x211 JUMP JUMPDEST JUMPDEST POP SWAP2 SWAP1 POP JUMP JUMPDEST PUSH0 DUP2 SWAP1 POP DUP2 PUSH0 MSTORE PUSH1 0x20 PUSH0 KECCAK256 SWAP1 POP SWAP2 SWAP1 POP JUMP JUMPDEST PUSH0 PUSH1 0x20 PUSH1 0x1F DUP4 ADD DIV SWAP1 POP SWAP2 SWAP1 POP JUMP JUMPDEST PUSH0 DUP3 DUP3 SHL SWAP1 POP SWAP3 SWAP2 POP POP JUMP JUMPDEST PUSH0 PUSH1 0x8 DUP4 MUL PUSH2 0x2CA PUSH32 0xFFFFFFFFFFFFFFFFFFFFFFFFFFFFFFFFFFFFFFFFFFFFFFFFFFFFFFFFFFFFFFFF DUP3 PUSH2 0x28F JUMP JUMPDEST PUSH2 0x2D4 DUP7 DUP4 PUSH2 0x28F JUMP JUMPDEST SWAP6 POP DUP1 NOT DUP5 AND SWAP4 POP DUP1 DUP7 AND DUP5 OR SWAP3 POP POP POP SWAP4 SWAP3 POP POP POP JUMP JUMPDEST PUSH0 DUP2 SWAP1 POP SWAP2 SWAP1 POP JUMP JUMPDEST PUSH0 DUP2 SWAP1 POP SWAP2 SWAP1 POP JUMP JUMPDEST PUSH0 PUSH2 0x318 PUSH2 0x313 PUSH2 0x30E DUP5 PUSH2 0x2EC JUMP JUMPDEST PUSH2 0x2F5 JUMP JUMPDEST PUSH2 0x2EC JUMP JUMPDEST SWAP1 POP SWAP2 SWAP1 POP JUMP JUMPDEST PUSH0 DUP2 SWAP1 POP SWAP2 SWAP1 POP JUMP JUMPDEST PUSH2 0x331 DUP4 PUSH2 0x2FE JUMP JUMPDEST PUSH2 0x345 PUSH2 0x33D DUP3 PUSH2 0x31F JUMP JUMPDEST DUP5 DUP5 SLOAD PUSH2 0x29B JUMP JUMPDEST DUP3 SSTORE POP POP POP POP JUMP JUMPDEST PUSH0 SWAP1 JUMP JUMPDEST PUSH2 0x359 PUSH2 0x34D JUMP JUMPDEST PUSH2 0x364 DUP2 DUP5 DUP5 PUSH2 0x328 JUMP JUMPDEST POP POP POP JUMP JUMPDEST JUMPDEST DUP2 DUP2 LT ISZERO PUSH2 0x387 JUMPI PUSH2 0x37C PUSH0 DUP3 PUSH2 0x351 JUMP JUMPDEST PUSH1 0x1 DUP2 ADD SWAP1 POP PUSH2 0x36A JUMP JUMPDEST POP POP JUMP JUMPDEST PUSH1 0x1F DUP3 GT ISZERO PUSH2 0x3CC JUMPI PUSH2 0x39D DUP2 PUSH2 0x26E JUMP JUMPDEST PUSH2 0x3A6 DUP5 PUSH2 0x280 JUMP JUMPDEST DUP2 ADD PUSH1 0x20 DUP6 LT ISZERO PUSH2 0x3B5 JUMPI DUP2 SWAP1 POP JUMPDEST PUSH2 0x3C9 PUSH2 0x3C1 DUP6 PUSH2 0x280 JUMP JUMPDEST DUP4 ADD DUP3 PUSH2 0x369 JUMP JUMPDEST POP POP JUMPDEST POP POP POP JUMP JUMPDEST PUSH0 DUP3 DUP3 SHR SWAP1 POP SWAP3 SWAP2 POP POP JUMP JUMPDEST PUSH0 PUSH2 0x3EC PUSH0 NOT DUP5 PUSH1 0x8 MUL PUSH2 0x3D1 JUMP JUMPDEST NOT DUP1 DUP4 AND SWAP2 POP POP SWAP3 SWAP2 POP POP JUMP JUMPDEST PUSH0 PUSH2 0x404 DUP4 DUP4 PUSH2 0x3DD JUMP JUMPDEST SWAP2 POP DUP3 PUSH1 0x2 MUL DUP3 OR SWAP1 POP SWAP3 SWAP2 POP POP JUMP JUMPDEST PUSH2 0x41D DUP3 PUSH2 0x1DA JUMP JUMPDEST PUSH8 0xFFFFFFFFFFFFFFFF DUP2 GT ISZERO PUSH2 0x436 JUMPI PUSH2 0x435 PUSH2 0x1E4 JUMP JUMPDEST JUMPDEST PUSH2 0x440 DUP3 SLOAD PUSH2 0x23E JUMP JUMPDEST PUSH2 0x44B DUP3 DUP3 DUP6 PUSH2 0x38B JUMP JUMPDEST PUSH0 PUSH1 0x20 SWAP1 POP PUSH1 0x1F DUP4 GT PUSH1 0x1 DUP2 EQ PUSH2 0x47C JUMPI PUSH0 DUP5 ISZERO PUSH2 0x46A JUMPI DUP3 DUP8 ADD MLOAD SWAP1 POP JUMPDEST PUSH2 0x474 DUP6 DUP3 PUSH2 0x3F9 JUMP JUMPDEST DUP7 SSTORE POP PUSH2 0x4DB JUMP JUMPDEST PUSH1 0x1F NOT DUP5 AND PUSH2 0x48A DUP7 PUSH2 0x26E JUMP JUMPDEST PUSH0 JUMPDEST DUP3 DUP2 LT ISZERO PUSH2 0x4B1 JUMPI DUP5 DUP10 ADD MLOAD DUP3 SSTORE PUSH1 0x1 DUP3 ADD SWAP2 POP PUSH1 0x20 DUP6 ADD SWAP5 POP PUSH1 0x20 DUP2 ADD SWAP1 POP PUSH2 0x48C JUMP JUMPDEST DUP7 DUP4 LT ISZERO PUSH2 0x4CE JUMPI DUP5 DUP10 ADD MLOAD PUSH2 0x4CA PUSH1 0x1F DUP10 AND DUP3 PUSH2 0x3DD JUMP JUMPDEST DUP4 SSTORE POP JUMPDEST PUSH1 0x1 PUSH1 0x2 DUP9 MUL ADD DUP9 SSTORE POP POP POP JUMPDEST POP POP POP POP POP POP JUMP JUMPDEST PUSH32 0x4E487B7100000000000000000000000000000000000000000000000000000000 PUSH0 MSTORE PUSH1 0x11 PUSH1 0x4 MSTORE PUSH1 0x24 PUSH0 REVERT JUMPDEST PUSH0 DUP2 PUSH1 0x1 SHR SWAP1 POP SWAP2 SWAP1 POP JUMP JUMPDEST PUSH0 DUP1 DUP3 SWAP2 POP DUP4 SWAP1 POP JUMPDEST PUSH1 0x1 DUP6 GT ISZERO PUSH2 0x565 JUMPI DUP1 DUP7 DIV DUP2 GT ISZERO PUSH2 0x541 JUMPI PUSH2 0x540 PUSH2 0x4E3 JUMP JUMPDEST JUMPDEST PUSH1 0x1 DUP6 AND ISZERO PUSH2 0x550 JUMPI DUP1 DUP3 MUL SWAP2 POP JUMPDEST DUP1 DUP2 MUL SWAP1 POP PUSH2 0x55E DUP6 PUSH2 0x510 JUMP JUMPDEST SWAP5 POP PUSH2 0x525 JUMP JUMPDEST SWAP5 POP SWAP5 SWAP3 POP POP POP JUMP JUMPDEST PUSH0 DUP3 PUSH2 0x57D JUMPI PUSH1 0x1 SWAP1 POP PUSH2 0x638 JUMP JUMPDEST DUP2 PUSH2 0x58A JUMPI PUSH0 SWAP1 POP PUSH2 0x638 JUMP JUMPDEST DUP2 PUSH1 0x1 DUP2 EQ PUSH2 0x5A0 JUMPI PUSH1 0x2 DUP2 EQ PUSH2 0x5AA JUMPI PUSH2 0x5D9 JUMP JUMPDEST PUSH1 0x1 SWAP2 POP POP PUSH2 0x638 JUMP JUMPDEST PUSH1 0xFF DUP5 GT ISZERO PUSH2 0x5BC JUMPI PUSH2 0x5BB PUSH2 0x4E3 JUMP JUMPDEST JUMPDEST DUP4 PUSH1 0x2 EXP SWAP2 POP DUP5 DUP3 GT ISZERO PUSH2 0x5D3 JUMPI PUSH2 0x5D2 PUSH2 0x4E3 JUMP JUMPDEST JUMPDEST POP PUSH2 0x638 JUMP JUMPDEST POP PUSH1 0x20 DUP4 LT PUSH2 0x133 DUP4 LT AND PUSH1 0x4E DUP5 LT PUSH1 0xB DUP5 LT AND OR ISZERO PUSH2 0x60E JUMPI DUP3 DUP3 EXP SWAP1 POP DUP4 DUP2 GT ISZERO PUSH2 0x609 JUMPI PUSH2 0x608 PUSH2 0x4E3 JUMP JUMPDEST JUMPDEST PUSH2 0x638 JUMP JUMPDEST PUSH2 0x61B DUP5 DUP5 DUP5 PUSH1 0x1 PUSH2 0x51C JUMP JUMPDEST SWAP3 POP SWAP1 POP DUP2 DUP5 DIV DUP2 GT ISZERO PUSH2 0x632 JUMPI PUSH2 0x631 PUSH2 0x4E3 JUMP JUMPDEST JUMPDEST DUP2 DUP2 MUL SWAP1 POP JUMPDEST SWAP4 SWAP3 POP POP POP JUMP JUMPDEST PUSH0 PUSH1 0xFF DUP3 AND SWAP1 POP SWAP2 SWAP1 POP JUMP JUMPDEST PUSH0 PUSH2 0x655 DUP3 PUSH2 0x2EC JUMP JUMPDEST SWAP2 POP PUSH2 0x660 DUP4 PUSH2 0x63F JUMP JUMPDEST SWAP3 POP PUSH2 0x68D PUSH32 0xFFFFFFFFFFFFFFFFFFFFFFFFFFFFFFFFFFFFFFFFFFFFFFFFFFFFFFFFFFFFFFFF DUP5 DUP5 PUSH2 0x56E JUMP JUMPDEST SWAP1 POP SWAP3 SWAP2 POP POP JUMP JUMPDEST PUSH0 PUSH2 0x69F DUP3 PUSH2 0x2EC JUMP JUMPDEST SWAP2 POP PUSH2 0x6AA DUP4 PUSH2 0x2EC JUMP JUMPDEST SWAP3 POP DUP3 DUP3 MUL PUSH2 0x6B8 DUP2 PUSH2 0x2EC JUMP JUMPDEST SWAP2 POP DUP3 DUP3 DIV DUP5 EQ DUP4 ISZERO OR PUSH2 0x6CF JUMPI PUSH2 0x6CE PUSH2 0x4E3 JUMP JUMPDEST JUMPDEST POP SWAP3 SWAP2 POP POP JUMP JUMPDEST PUSH0 DUP3 DUP3 MSTORE PUSH1 0x20 DUP3 ADD SWAP1 POP SWAP3 SWAP2 POP POP JUMP JUMPDEST PUSH32 0x45524332303A6D696E7420746F20746865207A65726F20616464726573730000 PUSH0 DUP3 ADD MSTORE POP JUMP JUMPDEST PUSH0 PUSH2 0x71A PUSH1 0x1E DUP4 PUSH2 0x6D6 JUMP JUMPDEST SWAP2 POP PUSH2 0x725 DUP3 PUSH2 0x6E6 JUMP JUMPDEST PUSH1 0x20 DUP3 ADD SWAP1 POP SWAP2 SWAP1 POP JUMP JUMPDEST PUSH0 PUSH1 0x20 DUP3 ADD SWAP1 POP DUP2 DUP2 SUB PUSH0 DUP4 ADD MSTORE PUSH2 0x747 DUP2 PUSH2 0x70E JUMP JUMPDEST SWAP1 POP SWAP2 SWAP1 POP JUMP JUMPDEST PUSH0 PUSH2 0x758 DUP3 PUSH2 0x2EC JUMP JUMPDEST SWAP2 POP PUSH2 0x763 DUP4 PUSH2 0x2EC JUMP JUMPDEST SWAP3 POP DUP3 DUP3 ADD SWAP1 POP DUP1 DUP3 GT ISZERO PUSH2 0x77B JUMPI PUSH2 0x77A PUSH2 0x4E3 JUMP JUMPDEST JUMPDEST SWAP3 SWAP2 POP POP JUMP JUMPDEST PUSH2 0xF12 DUP1 PUSH2 0x78E PUSH0 CODECOPY PUSH0 RETURN INVALID PUSH1 0x80 PUSH1 0x40 MSTORE CALLVALUE DUP1 ISZERO PUSH2 0xF JUMPI PUSH0 DUP1 REVERT JUMPDEST POP PUSH1 0x4 CALLDATASIZE LT PUSH2 0x91 JUMPI PUSH0 CALLDATALOAD PUSH1 0xE0 SHR DUP1 PUSH4 0x23B872DD GT PUSH2 0x64 JUMPI DUP1 PUSH4 0x23B872DD EQ PUSH2 0x131 JUMPI DUP1 PUSH4 0x313CE567 EQ PUSH2 0x161 JUMPI DUP1 PUSH4 0x70A08231 EQ PUSH2 0x17F JUMPI DUP1 PUSH4 0x95D89B41 EQ PUSH2 0x1AF JUMPI DUP1 PUSH4 0xA9059CBB EQ PUSH2 0x1CD JUMPI PUSH2 0x91 JUMP JUMPDEST DUP1 PUSH4 0x6FDDE03 EQ PUSH2 0x95 JUMPI DUP1 PUSH4 0x95EA7B3 EQ PUSH2 0xB3 JUMPI DUP1 PUSH4 0x18160DDD EQ PUSH2 0xE3 JUMPI DUP1 PUSH4 0x1A46EC82 EQ PUSH2 0x101 JUMPI JUMPDEST PUSH0 DUP1 REVERT JUMPDEST PUSH2 0x9D PUSH2 0x1FD JUMP JUMPDEST PUSH1 0x40 MLOAD PUSH2 0xAA SWAP2 SWAP1 PUSH2 0x93E JUMP JUMPDEST PUSH1 0x40 MLOAD DUP1 SWAP2 SUB SWAP1 RETURN JUMPDEST PUSH2 0xCD PUSH1 0x4 DUP1 CALLDATASIZE SUB DUP2 ADD SWAP1 PUSH2 0xC8 SWAP2 SWAP1 PUSH2 0x9EF JUMP JUMPDEST PUSH2 0x28C JUMP JUMPDEST PUSH1 0x40 MLOAD PUSH2 0xDA SWAP2 SWAP1 PUSH2 0xA47 JUMP JUMPDEST PUSH1 0x40 MLOAD DUP1 SWAP2 SUB SWAP1 RETURN JUMPDEST PUSH2 0xEB PUSH2 0x2AE JUMP JUMPDEST PUSH1 0x40 MLOAD PUSH2 0xF8 SWAP2 SWAP1 PUSH2 0xA6F JUMP JUMPDEST PUSH1 0x40 MLOAD DUP1 SWAP2 SUB SWAP1 RETURN JUMPDEST PUSH2 0x11B PUSH1 0x4 DUP1 CALLDATASIZE SUB DUP2 ADD SWAP1 PUSH2 0x116 SWAP2 SWAP1 PUSH2 0xA88 JUMP JUMPDEST PUSH2 0x2B7 JUMP JUMPDEST PUSH1 0x40 MLOAD PUSH2 0x128 SWAP2 SWAP1 PUSH2 0xA6F JUMP JUMPDEST PUSH1 0x40 MLOAD DUP1 SWAP2 SUB SWAP1 RETURN JUMPDEST PUSH2 0x14B PUSH1 0x4 DUP1 CALLDATASIZE SUB DUP2 ADD SWAP1 PUSH2 0x146 SWAP2 SWAP1 PUSH2 0xAC6 JUMP JUMPDEST PUSH2 0x339 JUMP JUMPDEST PUSH1 0x40 MLOAD PUSH2 0x158 SWAP2 SWAP1 PUSH2 0xA47 JUMP JUMPDEST PUSH1 0x40 MLOAD DUP1 SWAP2 SUB SWAP1 RETURN JUMPDEST PUSH2 0x169 PUSH2 0x367 JUMP JUMPDEST PUSH1 0x40 MLOAD PUSH2 0x176 SWAP2 SWAP1 PUSH2 0xB31 JUMP JUMPDEST PUSH1 0x40 MLOAD DUP1 SWAP2 SUB SWAP1 RETURN JUMPDEST PUSH2 0x199 PUSH1 0x4 DUP1 CALLDATASIZE SUB DUP2 ADD SWAP1 PUSH2 0x194 SWAP2 SWAP1 PUSH2 0xB4A JUMP JUMPDEST PUSH2 0x37C JUMP JUMPDEST PUSH1 0x40 MLOAD PUSH2 0x1A6 SWAP2 SWAP1 PUSH2 0xA6F JUMP JUMPDEST PUSH1 0x40 MLOAD DUP1 SWAP2 SUB SWAP1 RETURN JUMPDEST PUSH2 0x1B7 PUSH2 0x3C2 JUMP JUMPDEST PUSH1 0x40 MLOAD PUSH2 0x1C4 SWAP2 SWAP1 PUSH2 0x93E JUMP JUMPDEST PUSH1 0x40 MLOAD DUP1 SWAP2 SUB SWAP1 RETURN JUMPDEST PUSH2 0x1E7 PUSH1 0x4 DUP1 CALLDATASIZE SUB DUP2 ADD SWAP1 PUSH2 0x1E2 SWAP2 SWAP1 PUSH2 0x9EF JUMP JUMPDEST PUSH2 0x452 JUMP JUMPDEST PUSH1 0x40 MLOAD PUSH2 0x1F4 SWAP2 SWAP1 PUSH2 0xA47 JUMP JUMPDEST PUSH1 0x40 MLOAD DUP1 SWAP2 SUB SWAP1 RETURN JUMPDEST PUSH1 0x60 PUSH0 DUP1 SLOAD PUSH2 0x20B SWAP1 PUSH2 0xBA2 JUMP JUMPDEST DUP1 PUSH1 0x1F ADD PUSH1 0x20 DUP1 SWAP2 DIV MUL PUSH1 0x20 ADD PUSH1 0x40 MLOAD SWAP1 DUP2 ADD PUSH1 0x40 MSTORE DUP1 SWAP3 SWAP2 SWAP1 DUP2 DUP2 MSTORE PUSH1 0x20 ADD DUP3 DUP1 SLOAD PUSH2 0x237 SWAP1 PUSH2 0xBA2 JUMP JUMPDEST DUP1 ISZERO PUSH2 0x282 JUMPI DUP1 PUSH1 0x1F LT PUSH2 0x259 JUMPI PUSH2 0x100 DUP1 DUP4 SLOAD DIV MUL DUP4 MSTORE SWAP2 PUSH1 0x20 ADD SWAP2 PUSH2 0x282 JUMP JUMPDEST DUP3 ADD SWAP2 SWAP1 PUSH0 MSTORE PUSH1 0x20 PUSH0 KECCAK256 SWAP1 JUMPDEST DUP2 SLOAD DUP2 MSTORE SWAP1 PUSH1 0x1 ADD SWAP1 PUSH1 0x20 ADD DUP1 DUP4 GT PUSH2 0x265 JUMPI DUP3 SWAP1 SUB PUSH1 0x1F AND DUP3 ADD SWAP2 JUMPDEST POP POP POP POP POP SWAP1 POP SWAP1 JUMP JUMPDEST PUSH0 DUP1 PUSH2 0x296 PUSH2 0x474 JUMP JUMPDEST SWAP1 POP PUSH2 0x2A3 DUP2 DUP6 DUP6 PUSH2 0x47B JUMP JUMPDEST PUSH1 0x1 SWAP2 POP POP SWAP3 SWAP2 POP POP JUMP JUMPDEST PUSH0 PUSH1 0x3 SLOAD SWAP1 POP SWAP1 JUMP JUMPDEST PUSH0 PUSH1 0x5 PUSH0 DUP5 PUSH20 0xFFFFFFFFFFFFFFFFFFFFFFFFFFFFFFFFFFFFFFFF AND PUSH20 0xFFFFFFFFFFFFFFFFFFFFFFFFFFFFFFFFFFFFFFFF AND DUP2 MSTORE PUSH1 0x20 ADD SWAP1 DUP2 MSTORE PUSH1 0x20 ADD PUSH0 KECCAK256 PUSH0 DUP4 PUSH20 0xFFFFFFFFFFFFFFFFFFFFFFFFFFFFFFFFFFFFFFFF AND PUSH20 0xFFFFFFFFFFFFFFFFFFFFFFFFFFFFFFFFFFFFFFFF AND DUP2 MSTORE PUSH1 0x20 ADD SWAP1 DUP2 MSTORE PUSH1 0x20 ADD PUSH0 KECCAK256 SLOAD SWAP1 POP SWAP3 SWAP2 POP POP JUMP JUMPDEST PUSH0 DUP1 PUSH2 0x343 PUSH2 0x474 JUMP JUMPDEST SWAP1 POP PUSH2 0x350 DUP6 DUP3 DUP6 PUSH2 0x614 JUMP JUMPDEST PUSH2 0x35B DUP6 DUP6 DUP6 PUSH2 0x69F JUMP JUMPDEST PUSH1 0x1 SWAP2 POP POP SWAP4 SWAP3 POP POP POP JUMP JUMPDEST PUSH0 PUSH1 0x2 PUSH0 SWAP1 SLOAD SWAP1 PUSH2 0x100 EXP SWAP1 DIV PUSH1 0xFF AND SWAP1 POP SWAP1 JUMP JUMPDEST PUSH0 PUSH1 0x4 PUSH0 DUP4 PUSH20 0xFFFFFFFFFFFFFFFFFFFFFFFFFFFFFFFFFFFFFFFF AND PUSH20 0xFFFFFFFFFFFFFFFFFFFFFFFFFFFFFFFFFFFFFFFF AND DUP2 MSTORE PUSH1 0x20 ADD SWAP1 DUP2 MSTORE PUSH1 0x20 ADD PUSH0 KECCAK256 SLOAD SWAP1 POP SWAP2 SWAP1 POP JUMP JUMPDEST PUSH1 0x60 PUSH1 0x1 DUP1 SLOAD PUSH2 0x3D1 SWAP1 PUSH2 0xBA2 JUMP JUMPDEST DUP1 PUSH1 0x1F ADD PUSH1 0x20 DUP1 SWAP2 DIV MUL PUSH1 0x20 ADD PUSH1 0x40 MLOAD SWAP1 DUP2 ADD PUSH1 0x40 MSTORE DUP1 SWAP3 SWAP2 SWAP1 DUP2 DUP2 MSTORE PUSH1 0x20 ADD DUP3 DUP1 SLOAD PUSH2 0x3FD SWAP1 PUSH2 0xBA2 JUMP JUMPDEST DUP1 ISZERO PUSH2 0x448 JUMPI DUP1 PUSH1 0x1F LT PUSH2 0x41F JUMPI PUSH2 0x100 DUP1 DUP4 SLOAD DIV MUL DUP4 MSTORE SWAP2 PUSH1 0x20 ADD SWAP2 PUSH2 0x448 JUMP JUMPDEST DUP3 ADD SWAP2 SWAP1 PUSH0 MSTORE PUSH1 0x20 PUSH0 KECCAK256 SWAP1 JUMPDEST DUP2 SLOAD DUP2 MSTORE SWAP1 PUSH1 0x1 ADD SWAP1 PUSH1 0x20 ADD DUP1 DUP4 GT PUSH2 0x42B JUMPI DUP3 SWAP1 SUB PUSH1 0x1F AND DUP3 ADD SWAP2 JUMPDEST POP POP POP POP POP SWAP1 POP SWAP1 JUMP JUMPDEST PUSH0 DUP1 PUSH2 0x45C PUSH2 0x474 JUMP JUMPDEST SWAP1 POP PUSH2 0x469 DUP2 DUP6 DUP6 PUSH2 0x69F JUMP JUMPDEST PUSH1 0x1 SWAP2 POP POP SWAP3 SWAP2 POP POP JUMP JUMPDEST PUSH0 CALLER SWAP1 POP SWAP1 JUMP JUMPDEST PUSH0 PUSH20 0xFFFFFFFFFFFFFFFFFFFFFFFFFFFFFFFFFFFFFFFF AND DUP4 PUSH20 0xFFFFFFFFFFFFFFFFFFFFFFFFFFFFFFFFFFFFFFFF AND SUB PUSH2 0x4E9 JUMPI PUSH1 0x40 MLOAD PUSH32 0x8C379A000000000000000000000000000000000000000000000000000000000 DUP2 MSTORE PUSH1 0x4 ADD PUSH2 0x4E0 SWAP1 PUSH2 0xC42 JUMP JUMPDEST PUSH1 0x40 MLOAD DUP1 SWAP2 SUB SWAP1 REVERT JUMPDEST PUSH0 PUSH20 0xFFFFFFFFFFFFFFFFFFFFFFFFFFFFFFFFFFFFFFFF AND DUP3 PUSH20 0xFFFFFFFFFFFFFFFFFFFFFFFFFFFFFFFFFFFFFFFF AND SUB PUSH2 0x557 JUMPI PUSH1 0x40 MLOAD PUSH32 0x8C379A000000000000000000000000000000000000000000000000000000000 DUP2 MSTORE PUSH1 0x4 ADD PUSH2 0x54E SWAP1 PUSH2 0xC42 JUMP JUMPDEST PUSH1 0x40 MLOAD DUP1 SWAP2 SUB SWAP1 REVERT JUMPDEST DUP1 PUSH1 0x5 PUSH0 DUP6 PUSH20 0xFFFFFFFFFFFFFFFFFFFFFFFFFFFFFFFFFFFFFFFF AND PUSH20 0xFFFFFFFFFFFFFFFFFFFFFFFFFFFFFFFFFFFFFFFF AND DUP2 MSTORE PUSH1 0x20 ADD SWAP1 DUP2 MSTORE PUSH1 0x20 ADD PUSH0 KECCAK256 PUSH0 DUP5 PUSH20 0xFFFFFFFFFFFFFFFFFFFFFFFFFFFFFFFFFFFFFFFF AND PUSH20 0xFFFFFFFFFFFFFFFFFFFFFFFFFFFFFFFFFFFFFFFF AND DUP2 MSTORE PUSH1 0x20 ADD SWAP1 DUP2 MSTORE PUSH1 0x20 ADD PUSH0 KECCAK256 DUP2 SWAP1 SSTORE POP PUSH32 0x8C5BE1E5EBEC7D5BD14F71427D1E84F3DD0314C0F7B2291E5B200AC8C7C3B925 DUP4 DUP4 DUP4 PUSH1 0x40 MLOAD PUSH2 0x607 SWAP4 SWAP3 SWAP2 SWAP1 PUSH2 0xC6F JUMP JUMPDEST PUSH1 0x40 MLOAD DUP1 SWAP2 SUB SWAP1 LOG1 POP POP POP JUMP JUMPDEST PUSH0 PUSH2 0x61F DUP5 DUP5 PUSH2 0x2B7 JUMP JUMPDEST SWAP1 POP PUSH32 0xFFFFFFFFFFFFFFFFFFFFFFFFFFFFFFFFFFFFFFFFFFFFFFFFFFFFFFFFFFFFFFFF DUP2 EQ PUSH2 0x699 JUMPI DUP2 DUP2 LT ISZERO PUSH2 0x68B JUMPI PUSH1 0x40 MLOAD PUSH32 0x8C379A000000000000000000000000000000000000000000000000000000000 DUP2 MSTORE PUSH1 0x4 ADD PUSH2 0x682 SWAP1 PUSH2 0xD14 JUMP JUMPDEST PUSH1 0x40 MLOAD DUP1 SWAP2 SUB SWAP1 REVERT JUMPDEST PUSH2 0x698 DUP5 DUP5 DUP5 DUP5 SUB PUSH2 0x47B JUMP JUMPDEST JUMPDEST POP POP POP POP JUMP JUMPDEST PUSH0 PUSH20 0xFFFFFFFFFFFFFFFFFFFFFFFFFFFFFFFFFFFFFFFF AND DUP4 PUSH20 0xFFFFFFFFFFFFFFFFFFFFFFFFFFFFFFFFFFFFFFFF AND SUB PUSH2 0x70D JUMPI PUSH1 0x40 MLOAD PUSH32 0x8C379A000000000000000000000000000000000000000000000000000000000 DUP2 MSTORE PUSH1 0x4 ADD PUSH2 0x704 SWAP1 PUSH2 0xDA2 JUMP JUMPDEST PUSH1 0x40 MLOAD DUP1 SWAP2 SUB SWAP1 REVERT JUMPDEST PUSH0 PUSH20 0xFFFFFFFFFFFFFFFFFFFFFFFFFFFFFFFFFFFFFFFF AND DUP3 PUSH20 0xFFFFFFFFFFFFFFFFFFFFFFFFFFFFFFFFFFFFFFFF AND SUB PUSH2 0x77B JUMPI PUSH1 0x40 MLOAD PUSH32 0x8C379A000000000000000000000000000000000000000000000000000000000 DUP2 MSTORE PUSH1 0x4 ADD PUSH2 0x772 SWAP1 PUSH2 0xE30 JUMP JUMPDEST PUSH1 0x40 MLOAD DUP1 SWAP2 SUB SWAP1 REVERT JUMPDEST PUSH0 PUSH1 0x4 PUSH0 DUP6 PUSH20 0xFFFFFFFFFFFFFFFFFFFFFFFFFFFFFFFFFFFFFFFF AND PUSH20 0xFFFFFFFFFFFFFFFFFFFFFFFFFFFFFFFFFFFFFFFF AND DUP2 MSTORE PUSH1 0x20 ADD SWAP1 DUP2 MSTORE PUSH1 0x20 ADD PUSH0 KECCAK256 SLOAD SWAP1 POP DUP2 DUP2 LT ISZERO PUSH2 0x7FF JUMPI PUSH1 0x40 MLOAD PUSH32 0x8C379A000000000000000000000000000000000000000000000000000000000 DUP2 MSTORE PUSH1 0x4 ADD PUSH2 0x7F6 SWAP1 PUSH2 0xEBE JUMP JUMPDEST PUSH1 0x40 MLOAD DUP1 SWAP2 SUB SWAP1 REVERT JUMPDEST DUP2 DUP2 SUB PUSH1 0x4 PUSH0 DUP7 PUSH20 0xFFFFFFFFFFFFFFFFFFFFFFFFFFFFFFFFFFFFFFFF AND PUSH20 0xFFFFFFFFFFFFFFFFFFFFFFFFFFFFFFFFFFFFFFFF AND DUP2 MSTORE PUSH1 0x20 ADD SWAP1 DUP2 MSTORE PUSH1 0x20 ADD PUSH0 KECCAK256 DUP2 SWAP1 SSTORE POP DUP2 PUSH1 0x4 PUSH0 DUP6 PUSH20 0xFFFFFFFFFFFFFFFFFFFFFFFFFFFFFFFFFFFFFFFF AND PUSH20 0xFFFFFFFFFFFFFFFFFFFFFFFFFFFFFFFFFFFFFFFF AND DUP2 MSTORE PUSH1 0x20 ADD SWAP1 DUP2 MSTORE PUSH1 0x20 ADD PUSH0 KECCAK256 PUSH0 DUP3 DUP3 SLOAD ADD SWAP3 POP POP DUP2 SWAP1 SSTORE POP PUSH32 0xDDF252AD1BE2C89B69C2B068FC378DAA952BA7F163C4A11628F55A4DF523B3EF DUP5 DUP5 DUP5 PUSH1 0x40 MLOAD PUSH2 0x8C0 SWAP4 SWAP3 SWAP2 SWAP1 PUSH2 0xC6F JUMP JUMPDEST PUSH1 0x40 MLOAD DUP1 SWAP2 SUB SWAP1 LOG1 POP POP POP POP JUMP JUMPDEST PUSH0 DUP2 MLOAD SWAP1 POP SWAP2 SWAP1 POP JUMP JUMPDEST PUSH0 DUP3 DUP3 MSTORE PUSH1 0x20 DUP3 ADD SWAP1 POP SWAP3 SWAP2 POP POP JUMP JUMPDEST DUP3 DUP2 DUP4 MCOPY PUSH0 DUP4 DUP4 ADD MSTORE POP POP POP JUMP JUMPDEST PUSH0 PUSH1 0x1F NOT PUSH1 0x1F DUP4 ADD AND SWAP1 POP SWAP2 SWAP1 POP JUMP JUMPDEST PUSH0 PUSH2 0x910 DUP3 PUSH2 0x8CE JUMP JUMPDEST PUSH2 0x91A DUP2 DUP6 PUSH2 0x8D8 JUMP JUMPDEST SWAP4 POP PUSH2 0x92A DUP2 DUP6 PUSH1 0x20 DUP7 ADD PUSH2 0x8E8 JUMP JUMPDEST PUSH2 0x933 DUP2 PUSH2 0x8F6 JUMP JUMPDEST DUP5 ADD SWAP2 POP POP SWAP3 SWAP2 POP POP JUMP JUMPDEST PUSH0 PUSH1 0x20 DUP3 ADD SWAP1 POP DUP2 DUP2 SUB PUSH0 DUP4 ADD MSTORE PUSH2 0x956 DUP2 DUP5 PUSH2 0x906 JUMP JUMPDEST SWAP1 POP SWAP3 SWAP2 POP POP JUMP JUMPDEST PUSH0 DUP1 REVERT JUMPDEST PUSH0 PUSH20 0xFFFFFFFFFFFFFFFFFFFFFFFFFFFFFFFFFFFFFFFF DUP3 AND SWAP1 POP SWAP2 SWAP1 POP JUMP JUMPDEST PUSH0 PUSH2 0x98B DUP3 PUSH2 0x962 JUMP JUMPDEST SWAP1 POP SWAP2 SWAP1 POP JUMP JUMPDEST PUSH2 0x99B DUP2 PUSH2 0x981 JUMP JUMPDEST DUP2 EQ PUSH2 0x9A5 JUMPI PUSH0 DUP1 REVERT JUMPDEST POP JUMP JUMPDEST PUSH0 DUP2 CALLDATALOAD SWAP1 POP PUSH2 0x9B6 DUP2 PUSH2 0x992 JUMP JUMPDEST SWAP3 SWAP2 POP POP JUMP JUMPDEST PUSH0 DUP2 SWAP1 POP SWAP2 SWAP1 POP JUMP JUMPDEST PUSH2 0x9CE DUP2 PUSH2 0x9BC JUMP JUMPDEST DUP2 EQ PUSH2 0x9D8 JUMPI PUSH0 DUP1 REVERT JUMPDEST POP JUMP JUMPDEST PUSH0 DUP2 CALLDATALOAD SWAP1 POP PUSH2 0x9E9 DUP2 PUSH2 0x9C5 JUMP JUMPDEST SWAP3 SWAP2 POP POP JUMP JUMPDEST PUSH0 DUP1 PUSH1 0x40 DUP4 DUP6 SUB SLT ISZERO PUSH2 0xA05 JUMPI PUSH2 0xA04 PUSH2 0x95E JUMP JUMPDEST JUMPDEST PUSH0 PUSH2 0xA12 DUP6 DUP3 DUP7 ADD PUSH2 0x9A8 JUMP JUMPDEST SWAP3 POP POP PUSH1 0x20 PUSH2 0xA23 DUP6 DUP3 DUP7 ADD PUSH2 0x9DB JUMP JUMPDEST SWAP2 POP POP SWAP3 POP SWAP3 SWAP1 POP JUMP JUMPDEST PUSH0 DUP2 ISZERO ISZERO SWAP1 POP SWAP2 SWAP1 POP JUMP JUMPDEST PUSH2 0xA41 DUP2 PUSH2 0xA2D JUMP JUMPDEST DUP3 MSTORE POP POP JUMP JUMPDEST PUSH0 PUSH1 0x20 DUP3 ADD SWAP1 POP PUSH2 0xA5A PUSH0 DUP4 ADD DUP5 PUSH2 0xA38 JUMP JUMPDEST SWAP3 SWAP2 POP POP JUMP JUMPDEST PUSH2 0xA69 DUP2 PUSH2 0x9BC JUMP JUMPDEST DUP3 MSTORE POP POP JUMP JUMPDEST PUSH0 PUSH1 0x20 DUP3 ADD SWAP1 POP PUSH2 0xA82 PUSH0 DUP4 ADD DUP5 PUSH2 0xA60 JUMP JUMPDEST SWAP3 SWAP2 POP POP JUMP JUMPDEST PUSH0 DUP1 PUSH1 0x40 DUP4 DUP6 SUB SLT ISZERO PUSH2 0xA9E JUMPI PUSH2 0xA9D PUSH2 0x95E JUMP JUMPDEST JUMPDEST PUSH0 PUSH2 0xAAB DUP6 DUP3 DUP7 ADD PUSH2 0x9A8 JUMP JUMPDEST SWAP3 POP POP PUSH1 0x20 PUSH2 0xABC DUP6 DUP3 DUP7 ADD PUSH2 0x9A8 JUMP JUMPDEST SWAP2 POP POP SWAP3 POP SWAP3 SWAP1 POP JUMP JUMPDEST PUSH0 DUP1 PUSH0 PUSH1 0x60 DUP5 DUP7 SUB SLT ISZERO PUSH2 0xADD JUMPI PUSH2 0xADC PUSH2 0x95E JUMP JUMPDEST JUMPDEST PUSH0 PUSH2 0xAEA DUP7 DUP3 DUP8 ADD PUSH2 0x9A8 JUMP JUMPDEST SWAP4 POP POP PUSH1 0x20 PUSH2 0xAFB DUP7 DUP3 DUP8 ADD PUSH2 0x9A8 JUMP JUMPDEST SWAP3 POP POP PUSH1 0x40 PUSH2 0xB0C DUP7 DUP3 DUP8 ADD PUSH2 0x9DB JUMP JUMPDEST SWAP2 POP POP SWAP3 POP SWAP3 POP SWAP3 JUMP JUMPDEST PUSH0 PUSH1 0xFF DUP3 AND SWAP1 POP SWAP2 SWAP1 POP JUMP JUMPDEST PUSH2 0xB2B DUP2 PUSH2 0xB16 JUMP JUMPDEST DUP3 MSTORE POP POP JUMP JUMPDEST PUSH0 PUSH1 0x20 DUP3 ADD SWAP1 POP PUSH2 0xB44 PUSH0 DUP4 ADD DUP5 PUSH2 0xB22 JUMP JUMPDEST SWAP3 SWAP2 POP POP JUMP JUMPDEST PUSH0 PUSH1 0x20 DUP3 DUP5 SUB SLT ISZERO PUSH2 0xB5F JUMPI PUSH2 0xB5E PUSH2 0x95E JUMP JUMPDEST JUMPDEST PUSH0 PUSH2 0xB6C DUP5 DUP3 DUP6 ADD PUSH2 0x9A8 JUMP JUMPDEST SWAP2 POP POP SWAP3 SWAP2 POP POP JUMP JUMPDEST PUSH32 0x4E487B7100000000000000000000000000000000000000000000000000000000 PUSH0 MSTORE PUSH1 0x22 PUSH1 0x4 MSTORE PUSH1 0x24 PUSH0 REVERT JUMPDEST PUSH0 PUSH1 0x2 DUP3 DIV SWAP1 POP PUSH1 0x1 DUP3 AND DUP1 PUSH2 0xBB9 JUMPI PUSH1 0x7F DUP3 AND SWAP2 POP JUMPDEST PUSH1 0x20 DUP3 LT DUP2 SUB PUSH2 0xBCC JUMPI PUSH2 0xBCB PUSH2 0xB75 JUMP JUMPDEST JUMPDEST POP SWAP2 SWAP1 POP JUMP JUMPDEST PUSH32 0x45524332303A5F617070726F766520746F20746865207A65726F206164647265 PUSH0 DUP3 ADD MSTORE PUSH32 0x7373000000000000000000000000000000000000000000000000000000000000 PUSH1 0x20 DUP3 ADD MSTORE POP JUMP JUMPDEST PUSH0 PUSH2 0xC2C PUSH1 0x22 DUP4 PUSH2 0x8D8 JUMP JUMPDEST SWAP2 POP PUSH2 0xC37 DUP3 PUSH2 0xBD2 JUMP JUMPDEST PUSH1 0x40 DUP3 ADD SWAP1 POP SWAP2 SWAP1 POP JUMP JUMPDEST PUSH0 PUSH1 0x20 DUP3 ADD SWAP1 POP DUP2 DUP2 SUB PUSH0 DUP4 ADD MSTORE PUSH2 0xC59 DUP2 PUSH2 0xC20 JUMP JUMPDEST SWAP1 POP SWAP2 SWAP1 POP JUMP JUMPDEST PUSH2 0xC69 DUP2 PUSH2 0x981 JUMP JUMPDEST DUP3 MSTORE POP POP JUMP JUMPDEST PUSH0 PUSH1 0x60 DUP3 ADD SWAP1 POP PUSH2 0xC82 PUSH0 DUP4 ADD DUP7 PUSH2 0xC60 JUMP JUMPDEST PUSH2 0xC8F PUSH1 0x20 DUP4 ADD DUP6 PUSH2 0xC60 JUMP JUMPDEST PUSH2 0xC9C PUSH1 0x40 DUP4 ADD DUP5 PUSH2 0xA60 JUMP JUMPDEST SWAP5 SWAP4 POP POP POP POP JUMP JUMPDEST PUSH32 0x4552433230EFBC9A6F776E65722062616C616E6365206973206C657373207468 PUSH0 DUP3 ADD MSTORE PUSH32 0x616E20616D6F756E742100000000000000000000000000000000000000000000 PUSH1 0x20 DUP3 ADD MSTORE POP JUMP JUMPDEST PUSH0 PUSH2 0xCFE PUSH1 0x2A DUP4 PUSH2 0x8D8 JUMP JUMPDEST SWAP2 POP PUSH2 0xD09 DUP3 PUSH2 0xCA4 JUMP JUMPDEST PUSH1 0x40 DUP3 ADD SWAP1 POP SWAP2 SWAP1 POP JUMP JUMPDEST PUSH0 PUSH1 0x20 DUP3 ADD SWAP1 POP DUP2 DUP2 SUB PUSH0 DUP4 ADD MSTORE PUSH2 0xD2B DUP2 PUSH2 0xCF2 JUMP JUMPDEST SWAP1 POP SWAP2 SWAP1 POP JUMP JUMPDEST PUSH32 0x45524332303A5F7472616E7366657220746F20746865207A65726F205B66726F PUSH0 DUP3 ADD MSTORE PUSH32 0x6D5D206164647265737300000000000000000000000000000000000000000000 PUSH1 0x20 DUP3 ADD MSTORE POP JUMP JUMPDEST PUSH0 PUSH2 0xD8C PUSH1 0x2A DUP4 PUSH2 0x8D8 JUMP JUMPDEST SWAP2 POP PUSH2 0xD97 DUP3 PUSH2 0xD32 JUMP JUMPDEST PUSH1 0x40 DUP3 ADD SWAP1 POP SWAP2 SWAP1 POP JUMP JUMPDEST PUSH0 PUSH1 0x20 DUP3 ADD SWAP1 POP DUP2 DUP2 SUB PUSH0 DUP4 ADD MSTORE PUSH2 0xDB9 DUP2 PUSH2 0xD80 JUMP JUMPDEST SWAP1 POP SWAP2 SWAP1 POP JUMP JUMPDEST PUSH32 0x45524332303A5F7472616E7366657220746F20746865207A65726F205B746F5D PUSH0 DUP3 ADD MSTORE PUSH32 0x2061646472657373000000000000000000000000000000000000000000000000 PUSH1 0x20 DUP3 ADD MSTORE POP JUMP JUMPDEST PUSH0 PUSH2 0xE1A PUSH1 0x28 DUP4 PUSH2 0x8D8 JUMP JUMPDEST SWAP2 POP PUSH2 0xE25 DUP3 PUSH2 0xDC0 JUMP JUMPDEST PUSH1 0x40 DUP3 ADD SWAP1 POP SWAP2 SWAP1 POP JUMP JUMPDEST PUSH0 PUSH1 0x20 DUP3 ADD SWAP1 POP DUP2 DUP2 SUB PUSH0 DUP4 ADD MSTORE PUSH2 0xE47 DUP2 PUSH2 0xE0E JUMP JUMPDEST SWAP1 POP SWAP2 SWAP1 POP JUMP JUMPDEST PUSH32 0x45524332303A616D6F756E74206973206C657373207468616E2066726F6D4261 PUSH0 DUP3 ADD MSTORE PUSH32 0x6C616E6365000000000000000000000000000000000000000000000000000000 PUSH1 0x20 DUP3 ADD MSTORE POP JUMP JUMPDEST PUSH0 PUSH2 0xEA8 PUSH1 0x25 DUP4 PUSH2 0x8D8 JUMP JUMPDEST SWAP2 POP PUSH2 0xEB3 DUP3 PUSH2 0xE4E JUMP JUMPDEST PUSH1 0x40 DUP3 ADD SWAP1 POP SWAP2 SWAP1 POP JUMP JUMPDEST PUSH0 PUSH1 0x20 DUP3 ADD SWAP1 POP DUP2 DUP2 SUB PUSH0 DUP4 ADD MSTORE PUSH2 0xED5 DUP2 PUSH2 0xE9C JUMP JUMPDEST SWAP1 POP SWAP2 SWAP1 POP JUMP INVALID LOG2 PUSH5 0x6970667358 0x22 SLT KECCAK256 0xC9 0xB2 PUSH28 0xA2318CA802427A1DC63E4D56C225B1609DE4D3924EA4317F2F2FD2EE SWAP3 PUSH5 0x736F6C6343 STOP ADDMOD BYTE STOP CALLER "
		},
		"gasEstimates": {
			"creation": {
				"codeDepositCost": "771600",
				"executionCost": "infinite",
				"totalCost": "infinite"
			},
			"external": {
				"allowanceOf(address,address)": "infinite",
				"approve(address,uint256)": "infinite",
				"balanceOf(address)": "2873",
				"decimals()": "2495",
				"name()": "infinite",
				"symbol()": "infinite",
				"totalSupply()": "2477",
				"transfer(address,uint256)": "infinite",
				"transferFrom(address,address,uint256)": "infinite"
			},
			"internal": {
				"_approve(address,address,uint256)": "infinite",
				"_mint(address,uint256)": "infinite",
				"_spendAllowance(address,address,uint256)": "infinite",
				"_transfer(address,address,uint256)": "infinite"
			}
		},
		"methodIdentifiers": {
			"allowanceOf(address,address)": "1a46ec82",
			"approve(address,uint256)": "095ea7b3",
			"balanceOf(address)": "70a08231",
			"decimals()": "313ce567",
			"name()": "06fdde03",
			"symbol()": "95d89b41",
			"totalSupply()": "18160ddd",
			"transfer(address,uint256)": "a9059cbb",
			"transferFrom(address,address,uint256)": "23b872dd"
		}
	},
	"abi": [
		{
			"inputs": [],
			"stateMutability": "nonpayable",
			"type": "constructor"
		},
		{
			"anonymous": false,
			"inputs": [
				{
					"indexed": false,
					"internalType": "address",
					"name": "owner",
					"type": "address"
				},
				{
					"indexed": false,
					"internalType": "address",
					"name": "spender",
					"type": "address"
				},
				{
					"indexed": false,
					"internalType": "uint256",
					"name": "amount",
					"type": "uint256"
				}
			],
			"name": "Approval",
			"type": "event"
		},
		{
			"anonymous": false,
			"inputs": [
				{
					"indexed": false,
					"internalType": "address",
					"name": "from",
					"type": "address"
				},
				{
					"indexed": false,
					"internalType": "address",
					"name": "to",
					"type": "address"
				},
				{
					"indexed": false,
					"internalType": "uint256",
					"name": "amount",
					"type": "uint256"
				}
			],
			"name": "Transfer",
			"type": "event"
		},
		{
			"inputs": [
				{
					"internalType": "address",
					"name": "owner",
					"type": "address"
				},
				{
					"internalType": "address",
					"name": "spender",
					"type": "address"
				}
			],
			"name": "allowanceOf",
			"outputs": [
				{
					"internalType": "uint256",
					"name": "",
					"type": "uint256"
				}
			],
			"stateMutability": "view",
			"type": "function"
		},
		{
			"inputs": [
				{
					"internalType": "address",
					"name": "spender",
					"type": "address"
				},
				{
					"internalType": "uint256",
					"name": "amount",
					"type": "uint256"
				}
			],
			"name": "approve",
			"outputs": [
				{
					"internalType": "bool",
					"name": "",
					"type": "bool"
				}
			],
			"stateMutability": "nonpayable",
			"type": "function"
		},
		{
			"inputs": [
				{
					"internalType": "address",
					"name": "_owner",
					"type": "address"
				}
			],
			"name": "balanceOf",
			"outputs": [
				{
					"internalType": "uint256",
					"name": "balance",
					"type": "uint256"
				}
			],
			"stateMutability": "view",
			"type": "function"
		},
		{
			"inputs": [],
			"name": "decimals",
			"outputs": [
				{
					"internalType": "uint8",
					"name": "",
					"type": "uint8"
				}
			],
			"stateMutability": "view",
			"type": "function"
		},
		{
			"inputs": [],
			"name": "name",
			"outputs": [
				{
					"internalType": "string",
					"name": "",
					"type": "string"
				}
			],
			"stateMutability": "view",
			"type": "function"
		},
		{
			"inputs": [],
			"name": "symbol",
			"outputs": [
				{
					"internalType": "string",
					"name": "",
					"type": "string"
				}
			],
			"stateMutability": "view",
			"type": "function"
		},
		{
			"inputs": [],
			"name": "totalSupply",
			"outputs": [
				{
					"internalType": "uint256",
					"name": "",
					"type": "uint256"
				}
			],
			"stateMutability": "view",
			"type": "function"
		},
		{
			"inputs": [
				{
					"internalType": "address",
					"name": "_to",
					"type": "address"
				},
				{
					"internalType": "uint256",
					"name": "_value",
					"type": "uint256"
				}
			],
			"name": "transfer",
			"outputs": [
				{
					"internalType": "bool",
					"name": "",
					"type": "bool"
				}
			],
			"stateMutability": "nonpayable",
			"type": "function"
		},
		{
			"inputs": [
				{
					"internalType": "address",
					"name": "from",
					"type": "address"
				},
				{
					"internalType": "address",
					"name": "to",
					"type": "address"
				},
				{
					"internalType": "uint256",
					"name": "amount",
					"type": "uint256"
				}
			],
			"name": "transferFrom",
			"outputs": [
				{
					"internalType": "bool",
					"name": "",
					"type": "bool"
				}
			],
			"stateMutability": "nonpayable",
			"type": "function"
		}
	]
}